S0190000486967685F466C6F775F4D6F6E69746F722E737265634D
S11300000C9434000C9451000C9451000C94510045
S11300100C9451000C9451000C9451000C94510018
S11300200C9451000C9451000C9451000C94510008
S11300300C9451000C9451000C94450C0C945100F8
S11300400C9451000C9451000C9451000C945100E8
S11300500C9451000C9451000C9451000C945100D8
S11300600C9451000C94510011241FBECFEFD8E022
S1130070DEBFCDBF13E0A0E0B1E0E2EBFCE202C0E2
S113008005900D92AC33B107D9F727E0ACE3B3E0A8
S113009001C01D92A53CB207E1F70E94C40B0C9469
S11300A057160C940000CF92DF92EF92FF9286E0F5
S11300B00E94370DEAE7F0E08081806480838091BC
S11300C07A0084FFFCCFEAE7F0E0808180618083DE
S11300D0609178007091790080E090E00E94E814CB
S11300E020E030E040EA5FE30E949F1520E030E02A
S11300F040E85AE30E949F1520E030E040E850E4D5
S11301000E949F15609340037093410380934203C0
S11301109093430320E030E040E350E40E94421413
S1130120882364F480E090E0A0E3B0E4809340038B
S113013090934103A0934203B0934303609140031F
S113014070914103809142039091430320E030E099
S113015040E950E40E949A15181664F4F8948091CA
S11301605F039091600392609093600380935F03B8
S113017078940BC0F89480915F03909160039D7F05
S11301809093600380935F03789420E030E040E331
S113019050E4609140037091410380914203909137
S11301A043030E94D51320E030E048EC52E40E945F
S11301B09F1528E939E949EB5FE30E9447146B0175
S11301C07C0160933C0370933D0380933E039093C2
S11301D03F0320E030E046EC52E40E949A151816E2
S11301E06CF480E090E0A6ECB2E480933C0390933E
S11301F03D03A0933E03B0933F0311C020E030E0E1
S1130200A901C701B6010E944214882344F4109244
S11302103C0310923D0310923E0310923F03FF9063
S1130220EF90DF90CF90089560913C0370913D036F
S113023080913E0390913F030895CF92DF92EF9215
S1130240FF92442361F010924C0310924D031092DC
S11302504E0310924F0360E070E0CB0124C026E807
S113026037E042E75DE30E949F156B017C0127E8BC
S11302703FED40E75FE360914C0370914D03809143
S11302804E0390914F030E949F159B01AC01C7013F
S1130290B6010E94D61360934C0370934D03809370
S11302A04E0390934F03FF90EF90DF90CF9008950B
S11302B0CF92DF92EF92FF92442361F010924803B1
S11302C01092490310924A0310924B0360E070E0CD
S11302D0CB0124C026E837E042E75DE30E949F1586
S11302E06B017C0127E83FED40E75FE36091480341
S11302F07091490380914A0390914B030E949F158A
S11303009B01AC01C701B6010E94D6136093480358
S11303107093490380934A0390934B03FF90EF90AB
S1130320DF90CF900895CF92DF92EF92FF92442313
S113033061F0109244031092450310924603109208
S1130340470360E070E0CB0124C02BEE35E844E2C3
S11303505AE30E949F156B017C012EED36ED4FE7A9
S11303605FE360914403709145038091460390914B
S113037047030E949F159B01AC01C701B6010E946F
S1130380D61360934403709345038093460390937C
S11303904703FF90EF90DF90CF90089541E060E035
S11303A070E0CB010E941D0141E060E070E0CB01F0
S11303B00E94580141E060E070E0CB010E9493018B
S11303C0089540E00E941D01609354037093550307
S11303D08093560390935703089540E00E94580178
S11303E0609350037093510380935203909353038B
S11303F00895609154037091550380915603909130
S113040057030895609150037091510380915203F2
S1130410909153030895CF92DF92EF92FF920F933E
S11304201F93CF93DF9380E00E94370DEAE7F0E05B
S113043080818064808380917A0084FFFCCFCAE746
S1130440D0E08881806188830091780010917900E0
S113045087E00E94370D88818064888380917A00C8
S113046084FFFCCFEAE7F0E0808180618083C09163
S11304707800D0917900B80180E090E00E94E814FF
S113048020E030E040EA5FE30E949F1520E030E086
S113049040E85AE30E949F156B017C01BE0180E095
S11304A090E00E94E81420E030E040EA5FE30E941C
S11304B09F1520E030E040E85AE30E949F159B011D
S11304C0AC01C701B6010E94D51320E030E040E240
S11304D051E40E9447146B017C0124E330E847EBAC
S11304E059E30E944214882364F4F89480915F03D2
S11304F09091600382609093600380935F0378948B
S11305000BC0F89480915F03909160038D7F90936A
S1130510600380935F037894209104013091050176
S11305204091060150910701C701B6010E949F1531
S11305302091000130910101409102015091030189
S11305400E94D6136B017C01609358037093590386
S113055080935A0390935B0320E030E048EC52E42C
S11305600E949A1518166CF480E090E0A8ECB2E4AE
S11305708093580390935903A0935A03B0935B0359
S113058011C020E030E0A901C701B6010E94421465
S1130590882344F4109258031092590310925A037A
S11305A010925B03DF91CF911F910F91FF90EF9019
S11305B0DF90CF9008956091580370915903809112
S11305C05A0390915B030895AB01BC01F999FECFE6
S11305D084E090E00E943B160895AB01BC01F999B8
S11305E0FECF80E090E00E943B160895F999FECF7B
S11305F084E090E00E942316609304017093050147
S113060080930601909307010895F999FECF80E045
S113061090E00E942316609300017093010180937F
S113062002019093030108953F924F925F926F925B
S11306307F928F929F92AF92BF92CF92DF92EF926E
S1130640FF920F931F93CF93DF93362E882E912C16
S1130650A12CB12C880C991CAA1CBB1C880C991CBD
S1130660AA1CBB1CC12CD12C760190C080E00E9436
S1130670370DEAE7F0E080818064808380917A001E
S113068084FFFCCFCAE7D0E0888180618883009131
S113069078001091790087E00E94370D888180648A
S11306A0888380917A0084FFFCCFEAE7F0E08081C0
S11306B080618083C0917800D0917900B80180E096
S11306C090E00E94E81420E030E040EA5FE30E94FA
S11306D09F1520E030E040E85AE30E949F152B016B
S11306E03C01BE0180E090E00E94E81420E030E08C
S11306F040EA5FE30E949F1520E030E040E85AE3BF
S11307000E949F159B01AC01C301B2010E94D51345
S113071020E030E040E251E40E9447142B013C0108
S113072024E330E847EB59E30E94421488235CF445
S1130730F89480915F0390916003826090936003CA
S113074080935F037894D701C601880D991DAA1D73
S1130750BB1DEC01CC0FDD1FCC0FDD1FFE01E757E5
S1130760FC4F4082518262827382632D70E080E08C
S113077090E00E94E814C35FDB4F688379838A8327
S11307809B838FEFC81AD80AE80AF80A84E0C816CF
S1130790D104E104F10408F469CFDF91CF911F91F2
S11307A00F91FF90EF90DF90CF90BF90AF909F900C
S11307B08F907F906F905F904F903F900895FF923D
S11307C00F931F93CF93DF93F82E90E0FC01E05F2B
S11307D0FE4F1081FC01E85FFE4F00810E94610B17
S11307E00E94A30B802F0E94AC0B0E94BB0BC02F56
S11307F0D0E039C080915F039091600383FF0EC005
S1130800F89480915F0390916003877F90936003D5
S113081080935F0378948C2F0E94AC0B80E20E943B
S1130820110E882321F0CF5F1C1708F4C02F80E13C
S11308300E94110E8111D1E088E00E941E0E8823CF
S113084059F0F89480915F039091600391609093C4
S1130850600380935F03789480915F0390916003B9
S113086090FD0E94F207DD2309F4C4CF6C2F8F2D75
S11308700E941403DF91CF911F910F91FF9008956F
S11308800F931F9300E210E020E030E040E050E0DE
S1130890BA0189E893E00E94290E00E210E020E00A
S11308A030E040E050E0BA018DE094E00E94700E28
S11308B060E270E080E090E00E94B70E60E270E0D9
S11308C080E090E00E94F70E60E270E080E090E04B
S11308D00E94320F60E270E080E090E00E94780FA6
S11308E060E270E080E090E00E94BE0F60E270E0A1
S11308F080E090E00E9404100E944A1060E270E0E0
S113090080E090E00E945F10813059F4F894809167
S11309105F039091600390629093600380935F0300
S1130920789460E270E080E090E00E94C61081302C
S113093059F4F89480915F039091600390629093CE
S1130940600380935F0378940E942D1160930904DF
S113095070930A0480930B0490930C040E94361144
S11309606093850370938603809387039093880331
S11309701F910F910895CF930E940C0B2FEF83EDDD
S113098090E3215080409040E1F700C0000080E2F5
S11309900E94FB0D80E10E94FB0D80E20E94190E73
S11309A080E10E94190E88E00E941E0EC0E004C07F
S11309B08C2F0E94DF03CF5FC830D0F30E941D0B41
S11309C02FEF89E698E1215080409040E1F700C084
S11309D0000080915F039091600381FF0CC0F89444
S11309E080915F0390916003906290936003809381
S11309F05F03789402C00E94400480915F03909149
S1130A00600395FF2AC080915F039091600381FF8A
S1130A1016C0F89480915F03909160038D7F90934A
S1130A20600380935F0378940E942E0B2FEF89E676
S1130A3098E1215080409040E1F700C00000F89414
S1130A4080915F03909160039F7D909360038093F6
S1130A505F0378940E943F0B16C060910904709163
S1130A600A0480910B0490910C040E94E4026091AA
S1130A7085037091860380918703909188030E9477
S1130A80ED020E94500B2FEF83ED90E32150804044
S1130A909040E1F700C0000080E20E94FB0D80E17D
S1130AA00E94FB0D80E20E94190E80E10E94190E43
S1130AB088E00E941E0ECF910895CF93DF9300D05B
S1130AC000D000D0CDB7DEB780E1898386E08A8389
S1130AD088E08B8384E08C831D821E82CE01019684
S1130AE00E94FD1126960FB6F894DEBF0FBECDBF4F
S1130AF0DF91CF91089560E081E00E944013089552
S1130B00CF93DF93CDB7DEB727970FB6F894DEBF48
S1130B100FBECDBF85E08B8382E08C831D821E8255
S1130B208F8380E189831A82CE0101960E94371255
S1130B3027960FB6F894DEBF0FBECDBFDF91CF91DD
S1130B400895CF93DF93CDB7DEB72D970FB6F89402
S1130B50DEBF0FBECDBF84E08F83888719861A86D7
S1130B601D8688E09DE39A8389831C821B82CE01C3
S1130B7001960E9469122D960FB6F894DEBF0FBE3F
S1130B80CDBFDF91CF9108950E94A5110E943F111E
S1130B900E94E1010E940B020E94DB020E94ED010F
S1130BA00E9453000E94F901E0915D03F0E0EE0F12
S1130BB0FF1FEE0FFF1FE45DFE4F20813181428154
S1130BC053810E944214882354F480915F039091CE
S1130BD0600380629093600380935F0309C08091F7
S1130BE05F03909160038F7D9093600380935F0314
S1130BF00E940202E0915C03F0E0EE0FFF1FEE0F93
S1130C00FF1FE85EFE4F20813181428153810E94A3
S1130C104214882354F480915F03909160038064AC
S1130C209093600380935F03089580915F03909194
S1130C3060038F7B9093600380935F03089580919A
S1130C405F039091600382FF03C00E94360804C0D2
S1130C500E94F9010E94BE0880915F039091600395
S1130C6081FF03C00E94510804C00E9402020E9436
S1130C700E0980915F039091600391FF03C00E946D
S1130C80C90A08950E9414010E94820A0E94E80A77
S1130C900895CF93DF9300D000D000D0CDB7DEB756
S1130CA086E089831A821B821C821D821E82CE01E9
S1130CB001960E94ED0C26960FB6F894DEBF0FBE87
S1130CC0CDBFDF91CF9108958AB184608AB98BB189
S1130CD084608BB984B1826084B985B18D7F85B914
S1130CE080915F039091600380619093600380938F
S1130CF05F030E94F40D0E94CE010E9449060E94E7
S1130D005D050E94FC0A0E947B050E9475112FE775
S1130D108AE196E0215080409040E1F700C0000055
S1130D200E9480050E94A1050E945A0A089580919C
S1130D305F039091600383FF21C080915F039091D2
S1130D40600384FF0EC080915F03909160038076FE
S1130D509927892B19F00E94570905C00E941F0684
S1130D6002C00E941F06F89480915F039091600373
S1130D70877F9093600380935F03789480915F03EF
S1130D809091600384FF1FC080915F039091600382
S1130D9086709927892B41F480915F0390916003B9
S1130DA080769927892B31F0E0E8F0E08081806437
S1130DB0808311C0E0E8F0E080818F7B808385B17F
S1130DC08D7F85B908C0E0E8F0E080818F7B808367
S1130DD085B18D7F85B980E20E94110E882361F070
S1130DE0F89480915F039091600320E182279093AF
S1130DF0600380935F03789480E10E94110E88233E
S1130E0059F0F89480915F03909160038068909307
S1130E10600380935F03789480E10E94190E88E058
S1130E200E941E0E882359F0F89480915F039091DC
S1130E30600391609093600380935F0378940895B6
S1130E4080915D03843020F48F5F80935D03089567
S1130E5010925D03089580915C03843020F48F5FC9
S1130E6080935C03089510925C030895F999FECF72
S1130E7060915D0389E090E00E9429160895F99934
S1130E80FECF60915C0388E090E00E9429160895EB
S1130E9080915F039091600383FF2BC0E0915D0319
S1130EA0F0E0EE0FFF1FEE0FFF1FE45DFE4F6081C9
S1130EB07181828193810E947A09E0915C03F0E060
S1130EC0EE0FFF1FEE0FFF1FE85EFE4F6081718182
S1130ED0828193810E94BB090E94400AF894809108
S1130EE05F0390916003877F9093600380935F0317
S1130EF0789480915E0381111AC080E10E94110EE2
S1130F0081110E94200780E10E94190E882399F123
S1130F1081E080935E03F89480915F039091600375
S1130F2080689093600380935F03789424C08091D9
S1130F305E03813001F580E10E94110E81110E944F
S1130F402B0780E10E94190E8823A9F080915D038C
S1130F500E94360780915C030E943F0710925E0353
S1130F60F89480915F03909160038F77909360036E
S1130F7080935F03789488E00E941E0E882359F0C2
S1130F80F89480915F039091600391609093600363
S1130F9080935F037894E0E8F0E080818F7B808326
S1130FA085B18D7F85B90895F999FECF89E090E0E8
S1130FB00E941B1680935D030895F999FECF88E083
S1130FC090E00E941B1680935C030895F894A89502
S1130FD084B7877F84BFE0E6F0E080818861808306
S1130FE01082089580915F039091600383FF0DC088
S1130FF00E94490AF89480915F0390916003877F6F
S11310009093600380935F03789488E00E94FB0DC3
S1131010882371F00E94E6072FE78AE196E02150C9
S113102080409040E1F700C000008BB18B7F8BB90A
S11310300895F894E0E6F0E08081886180838081FF
S1131040886280837894089561E081E00E94DE0DD7
S113105085E092E00E94D10D089561E08AE00E944B
S1131060DE0D89EF91E00E94D10D089561E081E0E9
S11310700E94DE0D86EE91E00E94D10D089562E09B
S113108081E00E94DE0D8EEF91E00E94D10D089563
S113109062E08AE00E94DE0D84EF91E00E94D10DAF
S11310A0089562E081E00E94DE0D88ED91E00E94E7
S11310B0D10D08950F931F93CF93DF93FC01EB01A0
S11310C050E02EC0415051098E01040F151F9F019D
S11310D0ADECBCEC0E940C16969587959695879579
S11310E0969587959C01220F331F880F991F880FAF
S11310F0991F880F991F820F931F9F01281B390B7B
S1131100C901805DD8018C939F01ADECBCEC0E94B9
S11311100C16FC01F695E795F695E795F695E79597
S11311204115510579F6DF91CF911F910F910895E3
S11311308436910518F420E2FB0120830A9718F401
S113114080E2FB018183089543E068E471E08091CB
S11311506303909164030E945A0868E471E08091EB
S11311606303909164030E94980861E086E00E9402
S1131170DE0D88E491E00E94D10D0895CF92DF92B4
S1131180EF92FF926B017C0120E030E0A9010E9404
S11311904214882324F4F7FAF094F7F8F09420E04A
S11311A030E048E453E4C701B6010E949A151816CA
S11311B044F40F2EC12CD12CF8E4EF2EF3E4FF2ECF
S11311C0F02DC701B6010E94B914709364036093B3
S11311D063030E9424080E94A4080E942D08FF9023
S11311E0EF90DF90CF90089543E063E471E0809145
S11311F06103909162030E945A0863E471E0809154
S11312006103909162030E94980862E086E00E9464
S1131210DE0D83E491E00E94D10D0895CF92DF9218
S1131220EF92FF926B017C0120E030E048EC52E445
S11312300E949A15181654F020E030E0A901C70165
S1131240B6010E94421488236CF409C00F2EC12CED
S1131250D12CF8ECEF2EF2E4FF2EF02D03C0C12CBC
S1131260D12C7601C701B6010E94B91470936203B0
S1131270609361030E943F080E94F4080E9448089A
S1131280FF90EF90DF90CF90089561E081E00E949D
S1131290DE0D8DE192E00E94D10D089562E081E0BF
S11312A00E94DE0D8CE092E00E94D10D08958091A1
S11312B05F039091600385FF03C00E94450908C045
S11312C061E081E00E94DE0D81EB91E00E94D10D8E
S11312D080915F039091600386FF03C00E944E09D2
S11312E0089562E081E00E94DE0D81EB91E00E94AE
S11312F0D10D0895CF92DF92EF92FF926B017C01A2
S113130020E030E048E453E40E949A1518163CF4B7
S113131088EC90E0909368038093670316C020E004
S113132030E0A901C701B6010E94421488232CF4BD
S1131330109268031092670308C0C701B6010E94A7
S1131340B914709368036093670343E062E571E046
S113135080916703909168030E945A0862E571E0E6
S113136080916703909168030E949808FF90EF9022
S1131370DF90CF900895CF92DF92EF92FF926B01AE
S11313807C0120E030E048EC52E40E949A151816E3
S11313903CF484E690E0909366038093650316C062
S11313A020E030E0A901C701B6010E94421488235D
S11313B02CF4109266031092650308C0C701B601AD
S11313C00E94B914709366036093650343E06DE46F
S11313D071E080916503909166030E945A086DE460
S11313E071E080916503909166030E949808FF90D4
S11313F0EF90DF90CF90089580915E03811109C032
S113140061E081E00E94DE0D82E891E00E94D10D4E
S1131410089580915E03813039F461E00E94DE0D0D
S113142084E791E00E94D10D089580915E038111BB
S113143009C062E081E00E94DE0D87E591E00E9430
S1131440D10D089580915E03813039F462E00E94E9
S1131450DE0D85E691E00E94D10D089561E08DE0F6
S11314600E94DE0D82E591E00E94D10D089562E0B4
S11314708DE00E94DE0D8DE491E00E94D10D08956F
S11314800E94FC090E94150A0E942E0A0E94370A33
S1131490089561E081E00E94DE0D8FE392E00E94F6
S11314A0D10D62E081E00E94DE0D8EE292E00E94A6
S11314B0D10D089585B1816085B9089561E08EE00C
S11314C00E94DE0D84ED91E00E94D10D089562E04A
S11314D080E10E94DE0D82ED91E00E94D10D08951D
S11314E042E060E471E08091690390916A030E9494
S11314F05A0862E08EE00E94DE0D80E491E00E94D2
S1131500D10D0895CF92DF92EF92FF926B017C018F
S113151020E030E0A9010E94421488235CF020E01E
S113152030E046EC52E4C701B6010E949A15181641
S11315302CF00CC0C12CD12C760108C00F2EC12C6C
S1131540D12CF6ECEF2EF2E4FF2EF02DC701B601FC
S11315500E94B91470936A03609369030E945E0A3F
S11315600E94670A0E94700AFF90EF90DF90CF906C
S1131570089562E08EE00E94DE0D80916B0390E09E
S1131580880F991F880F991F8E539E4F0E94D10D6B
S113159008950E945E0A0E94B90A80915F039091A7
S11315A0600392FF14C0F89480915F0390916003EC
S11315B09B7F9093600380935F03789480916B0387
S11315C08F5F80936B03843010F010926B03089547
S11315D010926B03089561E081E00E94DE0D8AE2BF
S11315E093E00E94D10D62E081E00E94DE0D89E16A
S11315F093E00E94D10D08958EE780938201809339
S113160065010E94730D0E94EB0A84B1816084B964
S113161085B1816085B9089561E081E00E94DE0DA5
S113162088E093E00E94D10D62E081E00E94DE0D2B
S113163087EF92E00E94D10D089561E081E00E945D
S1131640DE0D86EE92E00E94D10D62E081E00E9400
S1131650DE0D85ED92E00E94D10D089561E081E0F8
S11316600E94DE0D84EC92E00E94D10D62E081E0E4
S11316700E94DE0D83EB92E00E94D10D089561E09B
S113168081E00E94DE0D82EA92E00E94D10D62E0C8
S113169081E00E94DE0D81E992E00E94D10D08955F
S11316A061E081E00E94DE0D80E892E00E94D10DAD
S11316B062E081E00E94DE0D8FE692E00E94D10D8F
S11316C00895CF93DF93C82F61E081E00E94DE0D7F
S11316D088E692E00E94D10DD0E0FE01E057FE4F73
S11316E0808142E063EA71E090E00E945A0861E080
S11316F087E00E94DE0D83EA91E00E94D10D61E053
S113170089E00E94DE0D83E692E00E94D10DC85666
S1131710DE4F888142E066EA71E090E00E945A0858
S113172061E08DE00E94DE0D86EA91E00E94D10D19
S113173061E08FE00E94DE0D80E692E00E94D10D10
S1131740DF91CF91089562E081E00E94DE0D86E58D
S113175092E00E94D10D089542E060EA71E090E0C9
S11317600E945A0862E08AE00E94DE0D80EA91E05D
S11317700E94D10D089562E08CE00E94DE0D80E5A8
S113178092E00E94D10D08950E94E6070E9464062B
S113179078942FE73AE186E0215030408040E1F729
S11317A000C0000080E00AC08F5F9FEF20E732E0B6
S11317B0915020403040E1F700C000004D9904C032
S11317C04C9902C0843180F3843149F480915F03E1
S11317D09091600398609093600380935F0380917D
S11317E05F039091600393FF0EC0F89480915F03B0
S11317F090916003977F9093600380935F03789444
S11318000E94BB040FC080E20E94FB0D80E10E9495
S1131810FB0D80E20E94190E80E10E94190E88E0FF
S11318200E941E0E0E94F6020E9405030E94D40725
S11318300E94DD070E94190880915F039091600364
S113184080FF0DC00E94C405F89480915F039091BD
S113185060038E7F9093600380935F0378948091FC
S11318605F039091600390FF03C00E94F2070BC0D6
S113187080915F039091600387FF03C00E94480733
S113188002C00E949706A895D7CF1F920F920FB659
S11318900F9211242F933F934F938F939F93809193
S11318A07203909173030196909373038093720370
S11318B0059708F465C01092730310927203809127
S11318C071038F5F8093710380915F039091600334
S11318D081609093600380935F0389B120918D04AC
S11318E08095822740916F0320916E03242728233B
S11318F020936E034095342F382330936F03832352
S1131900982F922380918D04892780938D04809150
S11319108D04892320918F04822B80938F0420913E
S11319208D0430E020953095892F90E08223932315
S113193090918E04892B80938E0480918D04807302
S113194031F484E690E090936D0380936C0380916E
S11319506C0390916D03019790936D0380936C03D6
S1131960892B71F484E190E090936D0380936C0370
S113197080918D04909190048073892B80939004BE
S113198080917103893180F010927103809170030A
S11319908F5F8093700380915F03909160038860F0
S11319A09093600380935F0380917003823058F0BA
S11319B01092700380915F03909160039460909300
S11319C0600380935F039F918F914F913F912F917B
S11319D00F900FBE0F901F901895CF93DF93DC01EB
S11319E0CCE7D0E018822BE730E0F9011082EAE777
S11319F0F0E0108280818068808390818C91892BB3
S1131A008083488111969C91119750E4959FC00161
S1131A101124842B8883988112968C911297877055
S1131A20892B8883408113969C911397C0E29C9FD5
S1131A30C0011124842B8083E901988114968C9130
S1131A401497892B8883908115968C91892B808398
S1131A5080818064808380917A0084FFFCCFEAE7F0
S1131A60F0E0808180618083DF91CF910895CF93EE
S1131A70DF93CDB7DEB728970FB6F894DEBF0FBE5D
S1131A80CDBF98E0E9EAF1E0DE01119601900D92F4
S1131A909A95E1F78770E1E0F0E0EC0FFD1FE80FA5
S1131AA0F11D8081ECE7F0E09081987F9083908134
S1131AB08770892B808328960FB6F894DEBF0FBEFB
S1131AC0CDBFDF91CF91089598B1977F98B998B120
S1131AD09B7F98B90E94311288B1846088B988B11B
S1131AE0886088B9089587B1826087B988B18260B7
S1131AF088B987B1846087B988B18B7F88B987B189
S1131B00886087B988B1886088B988B18D7F88B9C1
S1131B108FE99FE00197F1F700C0000088B182606F
S1131B2088B98FE39CE90197F1F700C0000080E3D6
S1131B300E94640D8FE99FE00197F1F700C0000057
S1131B4080E30E94640D80E30E94640D89E30E9497
S1131B50640D84E10E94640D86E50E94640D8DE6A7
S1131B600E94640D80E70E94640D8CE00E94640D65
S1131B7086E00E94640D81E00E94640D8FE19EE482
S1131B800197F1F700C00000089598B1977F98B9C4
S1131B9098B1946098B90E94311288B1886088B96C
S1131BA00895CF93DF93EC0103C00E94C50D2196E5
S1131BB088818111FACFDF91CF910895633031F09C
S1131BC0643031F0623031F090E005C094E103C03C
S1131BD094E501C090E48150883208F080E0890FD8
S1131BE080680E94640D08958AB1877C8AB98BB19C
S1131BF080638BB90895F89490918F048923909110
S1131C008F04982790938F0478940895F894909172
S1131C109004892390919004982790939004789449
S1131C200895F89490918D04909589230E94FB0D5A
S1131C3008950E94060E0E94FB0D0895F894909159
S1131C408E04892390918E04982790938E0478941F
S1131C5008954F925F926F927F928F929F92AF926C
S1131C60BF92CF92DF92EF92FF920F931F93C12CFA
S1131C70D12C760121C026013701440E551E661E63
S1131C80771EF601EE0FFF1FEE0FFF1FE80FF91F7F
S1131C9080809180A280B380F201EE0FFF1FEE0FCF
S1131CA0FF1FEF5CF94F80829182A282B382EFEF33
S1131CB0CE1ADE0AEE0AFE0AC016D106E206F306C2
S1131CC0D0F21F910F91FF90EF90DF90CF90BF90D3
S1131CD0AF909F908F907F906F905F904F900895FA
S1131CE04F925F926F927F928F929F92AF92BF9228
S1131CF0CF92DF92EF92FF920F931F93C12CD12CBE
S1131D00760121C026013701440E551E661E771E3A
S1131D10F601EE0FFF1FEE0FFF1FE80FF91F808083
S1131D209180A280B380F201EE0FFF1FEE0FFF1F20
S1131D30EF59FA4F80829182A282B382EFEFCE1ADA
S1131D40DE0AEE0AFE0AC016D106E206F306D0F257
S1131D501F910F91FF90EF90DF90CF90BF90AF90C5
S1131D609F908F907F906F905F904F9008958F9287
S1131D709F92AF92BF92CF92DF92EF92FF92CF9356
S1131D80DF934B015C01C12CD12C760120C0E6010C
S1131D90CC0FDD1FCC0FDD1FFE01EF5CF94F60811E
S1131DA0718182819381FE01EF59FA4F2081318143
S1131DB0428153810E949F15C350D94F6883798310
S1131DC08A839B838FEFC81AD80AE80AF80AC814D2
S1131DD0D904EA04FB04D8F2DF91CF91FF90EF908D
S1131DE0DF90CF90BF90AF909F908F9008958F9287
S1131DF09F92AF92BF92CF92DF92EF92FF92CF93D6
S1131E00DF934B015C01C12CD12C76011BC0E60190
S1131E10CC0FDD1FCC0FDD1FFE01EF5CF94F60819D
S1131E207181828193819B01AC010E949F15CB56E5
S1131E30DB4F688379838A839B838FEFC81AD80A20
S1131E40E80AF80AC814D904EA04FB0400F3DF9191
S1131E50CF91FF90EF90DF90CF90BF90AF909F9085
S1131E608F9008958F929F92AF92BF92CF92DF92FC
S1131E70EF92FF924B015C011092F9061092FA0660
S1131E801092FB061092FC06C12CD12C760122C0C4
S1131E90F601EE0FFF1FEE0FFF1FEF5CF94F2081DD
S1131EA03181428153816091F9067091FA068091E3
S1131EB0FB069091FC060E94D6136093F90670937A
S1131EC0FA068093FB069093FC068FEFC81AD80A93
S1131ED0E80AF80AC814D904EA04FB04C8F2FF901B
S1131EE0EF90DF90CF90BF90AF909F908F90089528
S1131EF08F929F92AF92BF92CF92DF92EF92FF9216
S1131F004B015C011092290610922A0610922B06AE
S1131F1010922C06C12CD12C760122C0F601EE0FB2
S1131F20FF1FEE0FFF1FEF59FA4F208131814281CD
S1131F3053816091290670912A0680912B06909115
S1131F402C060E94D6136093290670932A06809368
S1131F502B0690932C068FEFC81AD80AE80AF80AC1
S1131F60C814D904EA04FB04C8F2FF90EF90DF9090
S1131F70CF90BF90AF909F908F9008958F929F9233
S1131F80AF92BF92CF92DF92EF92FF924B015C012E
S1131F90109291041092920410929304109294045B
S1131FA0C12CD12C760122C0F601EE0FFF1FEE0FDB
S1131FB0FF1FE350F94F20813181428153816091A9
S1131FC091047091920480919304909194040E94DE
S1131FD0D613609391047093920480939304909326
S1131FE094048FEFC81AD80AE80AF80AC814D90466
S1131FF0EA04FB04C8F2FF90EF90DF90CF90BF900B
S1132000AF909F908F9008958F929F92AF92BF92BE
S1132010CF92DF92EF92FF924B015C0110925D052B
S113202010925E0510925F0510926005C12CD12CB0
S1132030760122C0F601EE0FFF1FEE0FFF1FEB56D5
S1132040FB4F208131814281538160915D05709104
S11320505E0580915F05909160050E94D6136093A0
S11320605D0570935E0580935F05909360058FEF27
S1132070C81AD80AE80AF80AC814D904EA04FB04FE
S1132080C8F2FF90EF90DF90CF90BF90AF909F90F9
S11320908F9008956091F9067091FA068091FB067D
S11320A09091FC069B01AC010E949F1560932D0644
S11320B070932E0680932F069093300608958F9286
S11320C09F92AF92BF92CF92DF92EF92FF920E94C3
S11320D0E8144B015C0120915D0530915E0540914F
S11320E05F05509160050E949F1520912D06309147
S11320F02E0640912F06509130060E94D5136B0195
S11321007C0120E030E0A9010E9442148823A1F15F
S1132110209191043091920440919304509194043D
S1132120C501B4010E949F154B015C012091290651
S113213030912A0640912B0650912C066091F906A5
S11321407091FA068091FB069091FC060E949F15FF
S11321509B01AC01C501B4010E94D513A7019601EE
S11321600E944714609378037093790380937A03F1
S113217090937B0380E001C081E0FF90EF90DF90BB
S1132180CF90BF90AF909F908F9008958F929F9221
S1132190AF92BF92CF92DF92EF92FF9280905D0553
S11321A090905E05A0905F05B09060050E94E814D1
S11321B0A50194010E949F1520912D0630912E06B1
S11321C040912F06509130060E94D5136B017C017B
S11321D020E030E0A9010E9442148823A1F120915B
S11321E0290630912A0640912B0650912C06C501F0
S11321F0B4010E949F154B015C0120919104309120
S1132200920440919304509194046091F906709162
S1132210FA068091FB069091FC060E949F159B0193
S1132220AC01C501B4010E94D513A70196010E9417
S113223047146093740370937503809376039093AB
S1132240770380E001C081E0FF90EF90DF90CF90B2
S1132250BF90AF909F908F90089560917803709194
S1132260790380917A0390917B03089560917403BC
S1132270709175038091760390917703089560912E
S11322808103709182038091830390918403089564
S1132290DC0150E090E016C0FD01E50FF11D208146
S11322A0922738E00CC0992344F4E92FF0E0EE0FB4
S11322B0FF1F21E39E2F922701C0990F3150311146
S11322C0F2CF5F5F561740F3941711F081E0089541
S11322D080E00895ECE7F3E09083818320E042E01E
S11322E0BF0180E40E94611308952FEF81EE94E012
S11322F0215080409040E1F700C0000080E090E26F
S11323000E946A112FEF80E792E0215080409040B4
S1132310E1F700C0000080E090E10E946A112FEF15
S113232080E792E0215080409040E1F700C0000037
S113233043E06EE773E080E40E9496138FEC97E02D
S11323400197F1F700C000000895CF93DF93EEE703
S1132350F3E010821182128280E090E10E946A11FF
S113236043E06EE773E080E40E949613892B81F0CA
S113237080E090E10E946A118823E1F180915F037B
S11323809091600384609093600380935F0332C0F4
S113239080915F03909160038B7F9093600380939F
S11323A05F03EEE7F3E0608170E0762F66278181BA
S11323B0EB01C82B40E063E0CF010E94481181117A
S11323C019C0BE0180E090E00E94E81420E030E0F3
S11323D04AEF56E40E94D5132DEC3CEC4EE053E456
S11323E00E94471460938103709382038093830354
S11323F090938403DF91CF910895FC0184B18F7E83
S113240084B984B1886084B984B1806284B98081DC
S1132410803121F484B1846084B903C084B18B7F9A
S113242084B91CBC1DBC9CB5358184812081832B5F
S1132430822B892B8CBD9CB523818281822B892B95
S11324408CBD9CB581818370892B8CBD9DB58181A8
S113245082FB882780F9892B8DBD8CB580648CBD67
S113246008958EBD0DB407FEFDCF80E00895FC01F4
S113247014BC15BCAEE6B0E01C92808187BD81819E
S113248088BD95B582818770892B85BD25B59381DB
S1132490892F90E0880F991F8870822B85BD94B591
S11324A083818370892B84BD24B5948130E4939F08
S11324B0C0011124822B84BD24B5958130E1939F02
S11324C0C0011124822B84BD9C918681892B8C931D
S11324D00895CF93DF93FC0160E870E0DB011C9268
S11324E0A1E8B0E01C922FE630E0E9011882808177
S11324F09181909389008093880082819381909345
S11325008B0080938A0084819581909387008093C7
S113251086009C9186818770892B8C934C9197813E
S1132520892F90E0880F991F8870842B8C93EB017E
S1132530988187818370892B888348819085D0E432
S11325409D9FC0011124842BEB01888348819185D0
S1132550D0E19D9FC0011124842BEB0188834C9111
S11325609285D0E89D9FC0011124842B8C934C91BB
S1132570938550E4959FC0011124842B8C93D90139
S11325809C918485892B8C93DF91CF91089584EA63
S11325908093BC008091BC008823E4F78091B9004B
S11325A0887F883051F08091B900887F803141F074
S11325B08091B900887F90E0089580E090E00895CC
S11325C080E090E0089584E98093BC0008958093AE
S11325D0BB0084E88093BC008091BC008823E4F7AE
S11325E08091B900887F883151F08091B900887F4B
S11325F0803441F08091B900887F90E0089580E0B4
S113260090E0089580E090E008958093BB0084E812
S11326108093BC008091BC008823E4F78091B900CA
S1132620887F883229F08091B900887F90E00895EE
S113263080E090E00895882381F084EC8093BC00CE
S11326408091BC008823E4F78091B900887F8035AD
S1132650A1F08091B900887F089584E88093BC003C
S11326608091BC008823E4F78091B900887F883585
S113267021F08091B900887F08958091BB0008956E
S113268097B1906397B9662321F098B1906398B994
S113269003C098B19F7C98B997B19F7C97B981305A
S11326A041F018F0823049F0089588E48093B8002E
S11326B0089588E18093B80008958CE08093B80071
S11326C00895EF92FF920F931F93CF93DF93C82F38
S11326D07B01142F022F0E94C712009701F58C2F43
S11326E0880F0E94E7120097D1F4C0E0D0E009C03F
S11326F0F701EC0FFD1F80810E940513009779F408
S11327002196812F90E0C817D90794F3011105C0D1
S11327100E94E31280E090E002C080E090E0DF914C
S1132720CF911F910F91FF90EF900895CF92DF9278
S1132730FF920F931F93CF93DF93C82F8B01F42E37
S11327400E94C7129C01009739F58C2F90E0880FE6
S1132750991F81600E94E7120097F9F4C0E0D0E06D
S113276009C06801CC0EDD1E81E00E941B13F60136
S1132770808321968F2D90E00197C817D9078CF399
S1132780EC01C00FD11F80E00E941B1388830E94BC
S1132790E31280E090E001C0932FDF91CF911F916D
S11327A00F91FF90DF90CF9008955058BB27AA2730
S11327B00E94ED130C9460150E94521538F00E948B
S11327C0591520F039F49F3F19F426F40C944F1551
S11327D00EF4E095E7FB0C944915E92F0E9471155E
S11327E058F3BA17620773078407950720F079F442
S11327F0A6F50C9493150EF4E0950B2EBA2FA02D8C
S11328000B01B90190010C01CA01A0011124FF2799
S1132810591B99F0593F50F4503E68F11A16F04094
S1132820A22F232F342F4427585FF3CF4695379593
S11328302795A795F0405395C9F77EF41F16BA0B58
S1132840620B730B840BBAF09150A1F0FF0FBB1F06
S1132850661F771F881FC2F70EC0BA0F621F731F4F
S1132860841F48F4879577956795B795F7959E3FAC
S113287008F0B0CF9395880F08F09927EE0F97953D
S1132880879508950E94251508F481E008950E9413
S11328905B140C9460150E94591558F00E9452154F
S11328A040F029F45F3F29F00C94491551110C9420
S11328B094150C944F150E94711568F39923B1F384
S11328C0552391F3951B550BBB27AA276217730752
S11328D0840738F09F5F5F4F220F331F441FAA1FE6
S11328E0A9F335D00E2E3AF0E0E832D091505040A2
S11328F0E695001CCAF72BD0FE2F29D0660F771F50
S1132900881FBB1F261737074807AB07B0E809F035
S1132910BB0B802DBF01FF2793585F4F3AF09E3FBA
S1132920510578F00C9449150C9494155F3FE4F329
S1132930983ED4F3869577956795B795F7959F5FFD
S1132940C9F7880F911D9695879597F90895E1E049
S1132950660F771F881FBB1F621773078407BA07A8
S113296020F0621B730B840BBA0BEE1F88F7E09503
S113297008950E94791588F09F5798F0B92F9927E8
S1132980B751B0F0E1F0660F771F881F991F1AF056
S1132990BA95C9F714C0B13091F00E949315B1E013
S11329A008950C949315672F782F8827B85F39F012
S11329B0B93FCCF3869577956795B395D9F73EF4EF
S11329C090958095709561957F4F8F4F9F4F089597
S11329D0E89409C097FB3EF49095809570956195B5
S11329E07F4F8F4F9F4F9923A9F0F92F96E9BB276B
S11329F09395F695879577956795B795F111F8CFE7
S1132A00FAF4BB0F11F460FF1BC06F5F7F4F8F4F51
S1132A109F4F16C0882311F096E911C0772321F047
S1132A209EE8872F762F05C0662371F096E8862FDF
S1132A3070E060E02AF09A95660F771F881FDAF736
S1132A40880F9695879597F90895990F0008550F63
S1132A50AA0BE0E8FEEF16161706E807F907C0F020
S1132A6012161306E407F50798F0621B730B840B28
S1132A70950B39F40A2661F0232B242B252B21F402
S1132A8008950A2609F4A140A6958FEF811D811DA2
S1132A90089597F99F6780E870E060E008959FEFDC
S1132AA080EC089500240A941616170618060906E1
S1132AB0089500240A9412161306140605060895B0
S1132AC0092E0394000C11F4882352F0BB0F40F438
S1132AD0BF2B11F460FF04C06F5F7F4F8F4F9F4F78
S1132AE0089557FD9058440F551F59F05F3F71F0FA
S1132AF04795880F97FB991F61F09F3F79F0879561
S1132B000895121613061406551FF2CF4695F1DFE9
S1132B1008C0161617061806991FF1CF8695710579
S1132B20610508940895E894BB2766277727CB01AD
S1132B3097F908950E94251508F48FEF08950E94CF
S1132B40B2150C9460150E94521538F00E94591564
S1132B5020F0952311F00C9449150C944F15112471
S1132B600C9494150E94711570F3959FC1F3950F01
S1132B7050E0551F629FF001729FBB27F00DB11DFD
S1132B80639FAA27F00DB11DAA1F649F6627B00D8D
S1132B90A11D661F829F2227B00DA11D621F739F76
S1132BA0B00DA11D621F839FA00D611D221F749F84
S1132BB03327A00D611D231F849F600D211D822FCB
S1132BC0762F6A2F11249F5750409AF0F1F08823F2
S1132BD04AF0EE0FFF1FBB1F661F771F881F91501F
S1132BE05040A9F79E3F510580F00C9449150C9470
S1132BF094155F3FE4F3983ED4F3869577956795F3
S1132C00B795F795E7959F5FC1F7FE2B880F911D48
S1132C109695879597F90895A29FB001B39FC00137
S1132C20A39F700D811D1124911DB29F700D811DF4
S1132C301124911D0895F999FECF92BD81BDF89A92
S1132C40992780B50895A6E1B0E044E050E00C94E3
S1132C504916262FF999FECF92BD81BDF89A0197A6
S1132C6000B4021639F01FBA20BD0FB6F894FA9AD0
S1132C70F99A0FBE08950396272F0E942A160E94E0
S1132C802916252F0E942A16242F0C942A16DC01BB
S1132C90CB01FC01F999FECF06C0F2BDE1BDF89A63
S1132CA0319600B40D9241505040B8F70895F8940D
S1052CB0FFCF50
S1132CB2BDD6DFBE9D3DED44141E28323C46505A1B
S1132CC21D27313B454F59630000204100007041EC
S1132CD20000A0410000C8410000F0410000204172
S1132CE20000A0410000F0410000204200004842E0
S1132CF2303000303030200030303020003030307E
S1132D02200030303020002046694F32204D494E99
S1132D123A202020002046694F32204D494E3A2065
S1132D2220202000204C504D204D494E3A20202096
S1132D322000204C504D204D494E3A2020202000A6
S1132D42141E28323C46505A1D27313B454F5963C5
S1132D523030003030003030000001020304050638
S1132D620720202020202020202020202020202076
S1132D722000202020002E2020002E2E20002E2E87
S1132D822E0025004241540046694F323A455252C0
S1132D924F52202020004C504D203A4552524F525F
S1132DA22020200025202020002020202000466909
S1132DB24F323A20004C504D203A200046694F329F
S1132DC2204D55592042414A4F21202000464C555E
S1132DD24A4F204D55592042414A4F21200020207C
S1132DE2504152412041504147415220202000533A
S1132DF255454C544520454C20424F544F4E2000DB
S1132E0225202020200020202046694F323A20002D
S1132E122520002520792000456E7472652000204B
S1132E222020434F4D504C45544120202020200067
S1132E32202043414C4942524143494F4E202020D5
S1132E4200202043414C4942524143494F4E2020E5
S1132E52200020204552524F5220454E204C412002
S1132E62202000202020202044452046694F322083
S1132E722020200020204552524F522053454E53C9
S1132E824F522020002020204441544F532E2E2EF6
S1132E9220202020200020202050524F434553411F
S1132EA24E444F20202000202043414C49425241AD
S1132EB243494F4E20202000202020494E494349B7
S1132EC2414E444F2020202000202020202020207A
S1132ED2202020202020202020002020204249459C
S10F2EE24E56454E49444F20202000006D
S9030000FC
